{
	"data": {
		"bytecode": {
			"linkReferences": {},
			"object": "6080604052348015600e575f80fd5b50335f806101000a81548173ffffffffffffffffffffffffffffffffffffffff021916908373ffffffffffffffffffffffffffffffffffffffff160217905550426001819055505f600281905550611a59806100695f395ff3fe60806040526004361061009b575f3560e01c8063ca8fb04111610063578063ca8fb04114610127578063cf701f3114610151578063d44a0e6114610179578063d5d319c8146101a3578063dffdac49146101cd578063f2a314fa146101f75761009b565b806330ac64701461009f5780634136aa35146100c757806353a41b50146100f157806387740c0d14610107578063a26759cb1461011d575b5f80fd5b3480156100aa575f80fd5b506100c560048036038101906100c09190610db1565b610235565b005b3480156100d2575f80fd5b506100db61052c565b6040516100e89190610e3c565b60405180910390f35b3480156100fc575f80fd5b50610105610546565b005b348015610112575f80fd5b5061011b610756565b005b6101256107ec565b005b348015610132575f80fd5b5061013b6107ee565b6040516101489190610fdf565b60405180910390f35b34801561015c575f80fd5b506101776004803603810190610172919061103a565b61092d565b005b348015610184575f80fd5b5061018d610b74565b60405161019a9190611074565b60405180910390f35b3480156101ae575f80fd5b506101b7610b7a565b6040516101c49190611074565b60405180910390f35b3480156101d8575f80fd5b506101e1610b81565b6040516101ee9190611074565b60405180910390f35b348015610202575f80fd5b5061021d6004803603810190610218919061108d565b610b87565b60405161022c9392919061110f565b60405180910390f35b5f8054906101000a900473ffffffffffffffffffffffffffffffffffffffff1673ffffffffffffffffffffffffffffffffffffffff163373ffffffffffffffffffffffffffffffffffffffff16146102c2576040517f08c379a00000000000000000000000000000000000000000000000000000000081526004016102b99061122d565b60405180910390fd5b5f8111610304576040517f08c379a00000000000000000000000000000000000000000000000000000000081526004016102fb906112e1565b60405180910390fd5b606481600254610314919061132c565b1115610355576040517f08c379a000000000000000000000000000000000000000000000000000000000815260040161034c9061141b565b60405180910390fd5b5f5b60048110156104ea575f73ffffffffffffffffffffffffffffffffffffffff166003826004811061038b5761038a611439565b5b600302015f015f9054906101000a900473ffffffffffffffffffffffffffffffffffffffff1673ffffffffffffffffffffffffffffffffffffffff16036104dd5760405180606001604052808673ffffffffffffffffffffffffffffffffffffffff16815260200185858080601f0160208091040260200160405190810160405280939291908181526020018383808284375f81840152601f19601f820116905080830192505050505050508152602001838152506003826004811061045457610453611439565b5b600302015f820151815f015f6101000a81548173ffffffffffffffffffffffffffffffffffffffff021916908373ffffffffffffffffffffffffffffffffffffffff16021790555060208201518160010190816104b1919061168d565b50604082015181600201559050508160025f8282546104d0919061132c565b9250508190555050610526565b8080600101915050610357565b506040517f08c379a000000000000000000000000000000000000000000000000000000000815260040161051d906117f2565b60405180910390fd5b50505050565b5f6301e13380600154426105409190611810565b10905090565b5f8054906101000a900473ffffffffffffffffffffffffffffffffffffffff1673ffffffffffffffffffffffffffffffffffffffff163373ffffffffffffffffffffffffffffffffffffffff16146105d3576040517f08c379a00000000000000000000000000000000000000000000000000000000081526004016105ca9061122d565b60405180910390fd5b5f4790505f8111610619576040517f08c379a0000000000000000000000000000000000000000000000000000000008152600401610610906118d9565b60405180910390fd5b5f5b6004811015610752575f73ffffffffffffffffffffffffffffffffffffffff166003826004811061064f5761064e611439565b5b600302015f015f9054906101000a900473ffffffffffffffffffffffffffffffffffffffff1673ffffffffffffffffffffffffffffffffffffffff1614610745575f6064600383600481106106a7576106a6611439565b5b6003020160020154846106ba91906118f7565b6106c49190611965565b9050600382600481106106da576106d9611439565b5b600302015f015f9054906101000a900473ffffffffffffffffffffffffffffffffffffffff1673ffffffffffffffffffffffffffffffffffffffff166108fc8290811502906040515f60405180830381858888f19350505050158015610742573d5f803e3d5ffd5b50505b808060010191505061061b565b5050565b5f8054906101000a900473ffffffffffffffffffffffffffffffffffffffff1673ffffffffffffffffffffffffffffffffffffffff163373ffffffffffffffffffffffffffffffffffffffff16146107e3576040517f08c379a00000000000000000000000000000000000000000000000000000000081526004016107da9061122d565b60405180910390fd5b42600181905550565b565b6107f6610c59565b6003600480602002604051908101604052809291905f905b82821015610924578382600302016040518060600160405290815f82015f9054906101000a900473ffffffffffffffffffffffffffffffffffffffff1673ffffffffffffffffffffffffffffffffffffffff1673ffffffffffffffffffffffffffffffffffffffff16815260200160018201805461088b906114c0565b80601f01602080910402602001604051908101604052809291908181526020018280546108b7906114c0565b80156109025780601f106108d957610100808354040283529160200191610902565b820191905f5260205f20905b8154815290600101906020018083116108e557829003601f168201915b505050505081526020016002820154815250508152602001906001019061080e565b50505050905090565b5f8054906101000a900473ffffffffffffffffffffffffffffffffffffffff1673ffffffffffffffffffffffffffffffffffffffff163373ffffffffffffffffffffffffffffffffffffffff16146109ba576040517f08c379a00000000000000000000000000000000000000000000000000000000081526004016109b19061122d565b60405180910390fd5b5f5b6004811015610b35578173ffffffffffffffffffffffffffffffffffffffff16600382600481106109f0576109ef611439565b5b600302015f015f9054906101000a900473ffffffffffffffffffffffffffffffffffffffff1673ffffffffffffffffffffffffffffffffffffffff1603610b285760038160048110610a4557610a44611439565b5b600302016002015460025f828254610a5d9190611810565b9250508190555060405180606001604052805f73ffffffffffffffffffffffffffffffffffffffff16815260200160405180602001604052805f81525081526020015f81525060038260048110610ab757610ab6611439565b5b600302015f820151815f015f6101000a81548173ffffffffffffffffffffffffffffffffffffffff021916908373ffffffffffffffffffffffffffffffffffffffff1602179055506020820151816001019081610b14919061168d565b506040820151816002015590505050610b71565b80806001019150506109bc565b506040517f08c379a0000000000000000000000000000000000000000000000000000000008152600401610b6890611a05565b60405180910390fd5b50565b60025481565b5f47905090565b60015481565b60038160048110610b96575f80fd5b600302015f91509050805f015f9054906101000a900473ffffffffffffffffffffffffffffffffffffffff1690806001018054610bd2906114c0565b80601f0160208091040260200160405190810160405280929190818152602001828054610bfe906114c0565b8015610c495780601f10610c2057610100808354040283529160200191610c49565b820191905f5260205f20905b815481529060010190602001808311610c2c57829003601f168201915b5050505050908060020154905083565b60405180608001604052806004905b610c70610c86565b815260200190600190039081610c685790505090565b60405180606001604052805f73ffffffffffffffffffffffffffffffffffffffff168152602001606081526020015f81525090565b5f80fd5b5f80fd5b5f73ffffffffffffffffffffffffffffffffffffffff82169050919050565b5f610cec82610cc3565b9050919050565b610cfc81610ce2565b8114610d06575f80fd5b50565b5f81359050610d1781610cf3565b92915050565b5f80fd5b5f80fd5b5f80fd5b5f8083601f840112610d3e57610d3d610d1d565b5b8235905067ffffffffffffffff811115610d5b57610d5a610d21565b5b602083019150836001820283011115610d7757610d76610d25565b5b9250929050565b5f819050919050565b610d9081610d7e565b8114610d9a575f80fd5b50565b5f81359050610dab81610d87565b92915050565b5f805f8060608587031215610dc957610dc8610cbb565b5b5f610dd687828801610d09565b945050602085013567ffffffffffffffff811115610df757610df6610cbf565b5b610e0387828801610d29565b93509350506040610e1687828801610d9d565b91505092959194509250565b5f8115159050919050565b610e3681610e22565b82525050565b5f602082019050610e4f5f830184610e2d565b92915050565b5f60049050919050565b5f81905092915050565b5f819050919050565b610e7b81610ce2565b82525050565b5f81519050919050565b5f82825260208201905092915050565b8281835e5f83830152505050565b5f601f19601f8301169050919050565b5f610ec382610e81565b610ecd8185610e8b565b9350610edd818560208601610e9b565b610ee681610ea9565b840191505092915050565b610efa81610d7e565b82525050565b5f606083015f830151610f155f860182610e72565b5060208301518482036020860152610f2d8282610eb9565b9150506040830151610f426040860182610ef1565b508091505092915050565b5f610f588383610f00565b905092915050565b5f602082019050919050565b5f610f7682610e55565b610f808185610e5f565b935083602082028501610f9285610e69565b805f5b85811015610fcd5784840389528151610fae8582610f4d565b9450610fb983610f60565b925060208a01995050600181019050610f95565b50829750879550505050505092915050565b5f6020820190508181035f830152610ff78184610f6c565b905092915050565b5f61100982610cc3565b9050919050565b61101981610fff565b8114611023575f80fd5b50565b5f8135905061103481611010565b92915050565b5f6020828403121561104f5761104e610cbb565b5b5f61105c84828501611026565b91505092915050565b61106e81610d7e565b82525050565b5f6020820190506110875f830184611065565b92915050565b5f602082840312156110a2576110a1610cbb565b5b5f6110af84828501610d9d565b91505092915050565b6110c181610ce2565b82525050565b5f82825260208201905092915050565b5f6110e182610e81565b6110eb81856110c7565b93506110fb818560208601610e9b565b61110481610ea9565b840191505092915050565b5f6060820190506111225f8301866110b8565b818103602083015261113481856110d7565b90506111436040830184611065565b949350505050565b7fe0b8a1e0b8b5e0b980e0b89ee0b8b5e0b8a2e0b887e0b980e0b888e0b989e0b85f8201527fb2e0b882e0b8ade0b887e0b980e0b897e0b988e0b8b2e0b899e0b8b1e0b989e060208201527fb899e0b897e0b8b5e0b988e0b8aae0b8b2e0b8a1e0b8b2e0b8a3e0b896e0b98060408201527fe0b8a3e0b8b5e0b8a2e0b881e0b89fe0b8b1e0b887e0b881e0b98ce0b88ae0b860608201527fb1e0b899e0b899e0b8b5e0b989e0b984e0b894e0b98900000000000000000000608082015250565b5f6112176096836110c7565b91506112228261114b565b60a082019050919050565b5f6020820190508181035f8301526112448161120b565b9050919050565b7fe0b980e0b89be0b8ade0b8a3e0b98ce0b980e0b88be0b987e0b899e0b895e0b95f8201527f8ce0b895e0b989e0b8ade0b887e0b8a1e0b8b2e0b881e0b881e0b8a7e0b988e060208201527fb8b2203000000000000000000000000000000000000000000000000000000000604082015250565b5f6112cb6044836110c7565b91506112d68261124b565b606082019050919050565b5f6020820190508181035f8301526112f8816112bf565b9050919050565b7f4e487b71000000000000000000000000000000000000000000000000000000005f52601160045260245ffd5b5f61133682610d7e565b915061134183610d7e565b9250828201905080821115611359576113586112ff565b5b92915050565b7fe0b980e0b89be0b8ade0b8a3e0b98ce0b980e0b88be0b987e0b899e0b895e0b95f8201527f8ce0b8a3e0b8a7e0b8a1e0b897e0b8b1e0b989e0b887e0b8abe0b8a1e0b894e060208201527fb895e0b989e0b8ade0b887e0b984e0b8a1e0b988e0b980e0b881e0b8b4e0b89960408201527f2031303025000000000000000000000000000000000000000000000000000000606082015250565b5f6114056065836110c7565b91506114108261135f565b608082019050919050565b5f6020820190508181035f830152611432816113f9565b9050919050565b7f4e487b71000000000000000000000000000000000000000000000000000000005f52603260045260245ffd5b7f4e487b71000000000000000000000000000000000000000000000000000000005f52604160045260245ffd5b7f4e487b71000000000000000000000000000000000000000000000000000000005f52602260045260245ffd5b5f60028204905060018216806114d757607f821691505b6020821081036114ea576114e9611493565b5b50919050565b5f819050815f5260205f209050919050565b5f6020601f8301049050919050565b5f82821b905092915050565b5f6008830261154c7fffffffffffffffffffffffffffffffffffffffffffffffffffffffffffffffff82611511565b6115568683611511565b95508019841693508086168417925050509392505050565b5f819050919050565b5f61159161158c61158784610d7e565b61156e565b610d7e565b9050919050565b5f819050919050565b6115aa83611577565b6115be6115b682611598565b84845461151d565b825550505050565b5f90565b6115d26115c6565b6115dd8184846115a1565b505050565b5b81811015611600576115f55f826115ca565b6001810190506115e3565b5050565b601f82111561164557611616816114f0565b61161f84611502565b8101602085101561162e578190505b61164261163a85611502565b8301826115e2565b50505b505050565b5f82821c905092915050565b5f6116655f198460080261164a565b1980831691505092915050565b5f61167d8383611656565b9150826002028217905092915050565b61169682610e81565b67ffffffffffffffff8111156116af576116ae611466565b5b6116b982546114c0565b6116c4828285611604565b5f60209050601f8311600181146116f5575f84156116e3578287015190505b6116ed8582611672565b865550611754565b601f198416611703866114f0565b5f5b8281101561172a57848901518255600182019150602085019450602081019050611705565b868310156117475784890151611743601f891682611656565b8355505b6001600288020188555050505b505050505050565b7fe0b984e0b8a1e0b988e0b8aae0b8b2e0b8a1e0b8b2e0b8a3e0b896e0b980e0b85f8201527f9ee0b8b4e0b988e0b8a1e0b89ce0b8b9e0b989e0b8a3e0b8b1e0b89ae0b8a1e060208201527fb8a3e0b894e0b881e0b980e0b881e0b8b4e0b899203420e0b884e0b899000000604082015250565b5f6117dc605d836110c7565b91506117e78261175c565b606082019050919050565b5f6020820190508181035f830152611809816117d0565b9050919050565b5f61181a82610d7e565b915061182583610d7e565b925082820390508181111561183d5761183c6112ff565b5b92915050565b7fe0b984e0b8a1e0b988e0b8a1e0b8b5e0b980e0b887e0b8b4e0b899e0b983e0b85f8201527f99e0b881e0b8ade0b887e0b897e0b8b8e0b899e0b983e0b8abe0b989e0b981e060208201527fb888e0b881e0b888e0b988e0b8b2e0b8a2000000000000000000000000000000604082015250565b5f6118c36051836110c7565b91506118ce82611843565b606082019050919050565b5f6020820190508181035f8301526118f0816118b7565b9050919050565b5f61190182610d7e565b915061190c83610d7e565b925082820261191a81610d7e565b91508282048414831517611931576119306112ff565b5b5092915050565b7f4e487b71000000000000000000000000000000000000000000000000000000005f52601260045260245ffd5b5f61196f82610d7e565b915061197a83610d7e565b92508261198a57611989611938565b5b828204905092915050565b7fe0b984e0b8a1e0b988e0b89ee0b89ae0b89ce0b8b9e0b989e0b8a3e0b8b1e0b85f8201527f9ae0b8a1e0b8a3e0b894e0b88100000000000000000000000000000000000000602082015250565b5f6119ef602d836110c7565b91506119fa82611995565b604082019050919050565b5f6020820190508181035f830152611a1c816119e3565b905091905056fea264697066735822122040abce3ef01eb017cb699da6beeffd09ceed40216f4f21ed50122fba2e4a977164736f6c634300081a0033",
			"opcodes": "PUSH1 0x80 PUSH1 0x40 MSTORE CALLVALUE DUP1 ISZERO PUSH1 0xE JUMPI PUSH0 DUP1 REVERT JUMPDEST POP CALLER PUSH0 DUP1 PUSH2 0x100 EXP DUP2 SLOAD DUP2 PUSH20 0xFFFFFFFFFFFFFFFFFFFFFFFFFFFFFFFFFFFFFFFF MUL NOT AND SWAP1 DUP4 PUSH20 0xFFFFFFFFFFFFFFFFFFFFFFFFFFFFFFFFFFFFFFFF AND MUL OR SWAP1 SSTORE POP TIMESTAMP PUSH1 0x1 DUP2 SWAP1 SSTORE POP PUSH0 PUSH1 0x2 DUP2 SWAP1 SSTORE POP PUSH2 0x1A59 DUP1 PUSH2 0x69 PUSH0 CODECOPY PUSH0 RETURN INVALID PUSH1 0x80 PUSH1 0x40 MSTORE PUSH1 0x4 CALLDATASIZE LT PUSH2 0x9B JUMPI PUSH0 CALLDATALOAD PUSH1 0xE0 SHR DUP1 PUSH4 0xCA8FB041 GT PUSH2 0x63 JUMPI DUP1 PUSH4 0xCA8FB041 EQ PUSH2 0x127 JUMPI DUP1 PUSH4 0xCF701F31 EQ PUSH2 0x151 JUMPI DUP1 PUSH4 0xD44A0E61 EQ PUSH2 0x179 JUMPI DUP1 PUSH4 0xD5D319C8 EQ PUSH2 0x1A3 JUMPI DUP1 PUSH4 0xDFFDAC49 EQ PUSH2 0x1CD JUMPI DUP1 PUSH4 0xF2A314FA EQ PUSH2 0x1F7 JUMPI PUSH2 0x9B JUMP JUMPDEST DUP1 PUSH4 0x30AC6470 EQ PUSH2 0x9F JUMPI DUP1 PUSH4 0x4136AA35 EQ PUSH2 0xC7 JUMPI DUP1 PUSH4 0x53A41B50 EQ PUSH2 0xF1 JUMPI DUP1 PUSH4 0x87740C0D EQ PUSH2 0x107 JUMPI DUP1 PUSH4 0xA26759CB EQ PUSH2 0x11D JUMPI JUMPDEST PUSH0 DUP1 REVERT JUMPDEST CALLVALUE DUP1 ISZERO PUSH2 0xAA JUMPI PUSH0 DUP1 REVERT JUMPDEST POP PUSH2 0xC5 PUSH1 0x4 DUP1 CALLDATASIZE SUB DUP2 ADD SWAP1 PUSH2 0xC0 SWAP2 SWAP1 PUSH2 0xDB1 JUMP JUMPDEST PUSH2 0x235 JUMP JUMPDEST STOP JUMPDEST CALLVALUE DUP1 ISZERO PUSH2 0xD2 JUMPI PUSH0 DUP1 REVERT JUMPDEST POP PUSH2 0xDB PUSH2 0x52C JUMP JUMPDEST PUSH1 0x40 MLOAD PUSH2 0xE8 SWAP2 SWAP1 PUSH2 0xE3C JUMP JUMPDEST PUSH1 0x40 MLOAD DUP1 SWAP2 SUB SWAP1 RETURN JUMPDEST CALLVALUE DUP1 ISZERO PUSH2 0xFC JUMPI PUSH0 DUP1 REVERT JUMPDEST POP PUSH2 0x105 PUSH2 0x546 JUMP JUMPDEST STOP JUMPDEST CALLVALUE DUP1 ISZERO PUSH2 0x112 JUMPI PUSH0 DUP1 REVERT JUMPDEST POP PUSH2 0x11B PUSH2 0x756 JUMP JUMPDEST STOP JUMPDEST PUSH2 0x125 PUSH2 0x7EC JUMP JUMPDEST STOP JUMPDEST CALLVALUE DUP1 ISZERO PUSH2 0x132 JUMPI PUSH0 DUP1 REVERT JUMPDEST POP PUSH2 0x13B PUSH2 0x7EE JUMP JUMPDEST PUSH1 0x40 MLOAD PUSH2 0x148 SWAP2 SWAP1 PUSH2 0xFDF JUMP JUMPDEST PUSH1 0x40 MLOAD DUP1 SWAP2 SUB SWAP1 RETURN JUMPDEST CALLVALUE DUP1 ISZERO PUSH2 0x15C JUMPI PUSH0 DUP1 REVERT JUMPDEST POP PUSH2 0x177 PUSH1 0x4 DUP1 CALLDATASIZE SUB DUP2 ADD SWAP1 PUSH2 0x172 SWAP2 SWAP1 PUSH2 0x103A JUMP JUMPDEST PUSH2 0x92D JUMP JUMPDEST STOP JUMPDEST CALLVALUE DUP1 ISZERO PUSH2 0x184 JUMPI PUSH0 DUP1 REVERT JUMPDEST POP PUSH2 0x18D PUSH2 0xB74 JUMP JUMPDEST PUSH1 0x40 MLOAD PUSH2 0x19A SWAP2 SWAP1 PUSH2 0x1074 JUMP JUMPDEST PUSH1 0x40 MLOAD DUP1 SWAP2 SUB SWAP1 RETURN JUMPDEST CALLVALUE DUP1 ISZERO PUSH2 0x1AE JUMPI PUSH0 DUP1 REVERT JUMPDEST POP PUSH2 0x1B7 PUSH2 0xB7A JUMP JUMPDEST PUSH1 0x40 MLOAD PUSH2 0x1C4 SWAP2 SWAP1 PUSH2 0x1074 JUMP JUMPDEST PUSH1 0x40 MLOAD DUP1 SWAP2 SUB SWAP1 RETURN JUMPDEST CALLVALUE DUP1 ISZERO PUSH2 0x1D8 JUMPI PUSH0 DUP1 REVERT JUMPDEST POP PUSH2 0x1E1 PUSH2 0xB81 JUMP JUMPDEST PUSH1 0x40 MLOAD PUSH2 0x1EE SWAP2 SWAP1 PUSH2 0x1074 JUMP JUMPDEST PUSH1 0x40 MLOAD DUP1 SWAP2 SUB SWAP1 RETURN JUMPDEST CALLVALUE DUP1 ISZERO PUSH2 0x202 JUMPI PUSH0 DUP1 REVERT JUMPDEST POP PUSH2 0x21D PUSH1 0x4 DUP1 CALLDATASIZE SUB DUP2 ADD SWAP1 PUSH2 0x218 SWAP2 SWAP1 PUSH2 0x108D JUMP JUMPDEST PUSH2 0xB87 JUMP JUMPDEST PUSH1 0x40 MLOAD PUSH2 0x22C SWAP4 SWAP3 SWAP2 SWAP1 PUSH2 0x110F JUMP JUMPDEST PUSH1 0x40 MLOAD DUP1 SWAP2 SUB SWAP1 RETURN JUMPDEST PUSH0 DUP1 SLOAD SWAP1 PUSH2 0x100 EXP SWAP1 DIV PUSH20 0xFFFFFFFFFFFFFFFFFFFFFFFFFFFFFFFFFFFFFFFF AND PUSH20 0xFFFFFFFFFFFFFFFFFFFFFFFFFFFFFFFFFFFFFFFF AND CALLER PUSH20 0xFFFFFFFFFFFFFFFFFFFFFFFFFFFFFFFFFFFFFFFF AND EQ PUSH2 0x2C2 JUMPI PUSH1 0x40 MLOAD PUSH32 0x8C379A000000000000000000000000000000000000000000000000000000000 DUP2 MSTORE PUSH1 0x4 ADD PUSH2 0x2B9 SWAP1 PUSH2 0x122D JUMP JUMPDEST PUSH1 0x40 MLOAD DUP1 SWAP2 SUB SWAP1 REVERT JUMPDEST PUSH0 DUP2 GT PUSH2 0x304 JUMPI PUSH1 0x40 MLOAD PUSH32 0x8C379A000000000000000000000000000000000000000000000000000000000 DUP2 MSTORE PUSH1 0x4 ADD PUSH2 0x2FB SWAP1 PUSH2 0x12E1 JUMP JUMPDEST PUSH1 0x40 MLOAD DUP1 SWAP2 SUB SWAP1 REVERT JUMPDEST PUSH1 0x64 DUP2 PUSH1 0x2 SLOAD PUSH2 0x314 SWAP2 SWAP1 PUSH2 0x132C JUMP JUMPDEST GT ISZERO PUSH2 0x355 JUMPI PUSH1 0x40 MLOAD PUSH32 0x8C379A000000000000000000000000000000000000000000000000000000000 DUP2 MSTORE PUSH1 0x4 ADD PUSH2 0x34C SWAP1 PUSH2 0x141B JUMP JUMPDEST PUSH1 0x40 MLOAD DUP1 SWAP2 SUB SWAP1 REVERT JUMPDEST PUSH0 JUMPDEST PUSH1 0x4 DUP2 LT ISZERO PUSH2 0x4EA JUMPI PUSH0 PUSH20 0xFFFFFFFFFFFFFFFFFFFFFFFFFFFFFFFFFFFFFFFF AND PUSH1 0x3 DUP3 PUSH1 0x4 DUP2 LT PUSH2 0x38B JUMPI PUSH2 0x38A PUSH2 0x1439 JUMP JUMPDEST JUMPDEST PUSH1 0x3 MUL ADD PUSH0 ADD PUSH0 SWAP1 SLOAD SWAP1 PUSH2 0x100 EXP SWAP1 DIV PUSH20 0xFFFFFFFFFFFFFFFFFFFFFFFFFFFFFFFFFFFFFFFF AND PUSH20 0xFFFFFFFFFFFFFFFFFFFFFFFFFFFFFFFFFFFFFFFF AND SUB PUSH2 0x4DD JUMPI PUSH1 0x40 MLOAD DUP1 PUSH1 0x60 ADD PUSH1 0x40 MSTORE DUP1 DUP7 PUSH20 0xFFFFFFFFFFFFFFFFFFFFFFFFFFFFFFFFFFFFFFFF AND DUP2 MSTORE PUSH1 0x20 ADD DUP6 DUP6 DUP1 DUP1 PUSH1 0x1F ADD PUSH1 0x20 DUP1 SWAP2 DIV MUL PUSH1 0x20 ADD PUSH1 0x40 MLOAD SWAP1 DUP2 ADD PUSH1 0x40 MSTORE DUP1 SWAP4 SWAP3 SWAP2 SWAP1 DUP2 DUP2 MSTORE PUSH1 0x20 ADD DUP4 DUP4 DUP1 DUP3 DUP5 CALLDATACOPY PUSH0 DUP2 DUP5 ADD MSTORE PUSH1 0x1F NOT PUSH1 0x1F DUP3 ADD AND SWAP1 POP DUP1 DUP4 ADD SWAP3 POP POP POP POP POP POP POP DUP2 MSTORE PUSH1 0x20 ADD DUP4 DUP2 MSTORE POP PUSH1 0x3 DUP3 PUSH1 0x4 DUP2 LT PUSH2 0x454 JUMPI PUSH2 0x453 PUSH2 0x1439 JUMP JUMPDEST JUMPDEST PUSH1 0x3 MUL ADD PUSH0 DUP3 ADD MLOAD DUP2 PUSH0 ADD PUSH0 PUSH2 0x100 EXP DUP2 SLOAD DUP2 PUSH20 0xFFFFFFFFFFFFFFFFFFFFFFFFFFFFFFFFFFFFFFFF MUL NOT AND SWAP1 DUP4 PUSH20 0xFFFFFFFFFFFFFFFFFFFFFFFFFFFFFFFFFFFFFFFF AND MUL OR SWAP1 SSTORE POP PUSH1 0x20 DUP3 ADD MLOAD DUP2 PUSH1 0x1 ADD SWAP1 DUP2 PUSH2 0x4B1 SWAP2 SWAP1 PUSH2 0x168D JUMP JUMPDEST POP PUSH1 0x40 DUP3 ADD MLOAD DUP2 PUSH1 0x2 ADD SSTORE SWAP1 POP POP DUP2 PUSH1 0x2 PUSH0 DUP3 DUP3 SLOAD PUSH2 0x4D0 SWAP2 SWAP1 PUSH2 0x132C JUMP JUMPDEST SWAP3 POP POP DUP2 SWAP1 SSTORE POP POP PUSH2 0x526 JUMP JUMPDEST DUP1 DUP1 PUSH1 0x1 ADD SWAP2 POP POP PUSH2 0x357 JUMP JUMPDEST POP PUSH1 0x40 MLOAD PUSH32 0x8C379A000000000000000000000000000000000000000000000000000000000 DUP2 MSTORE PUSH1 0x4 ADD PUSH2 0x51D SWAP1 PUSH2 0x17F2 JUMP JUMPDEST PUSH1 0x40 MLOAD DUP1 SWAP2 SUB SWAP1 REVERT JUMPDEST POP POP POP POP JUMP JUMPDEST PUSH0 PUSH4 0x1E13380 PUSH1 0x1 SLOAD TIMESTAMP PUSH2 0x540 SWAP2 SWAP1 PUSH2 0x1810 JUMP JUMPDEST LT SWAP1 POP SWAP1 JUMP JUMPDEST PUSH0 DUP1 SLOAD SWAP1 PUSH2 0x100 EXP SWAP1 DIV PUSH20 0xFFFFFFFFFFFFFFFFFFFFFFFFFFFFFFFFFFFFFFFF AND PUSH20 0xFFFFFFFFFFFFFFFFFFFFFFFFFFFFFFFFFFFFFFFF AND CALLER PUSH20 0xFFFFFFFFFFFFFFFFFFFFFFFFFFFFFFFFFFFFFFFF AND EQ PUSH2 0x5D3 JUMPI PUSH1 0x40 MLOAD PUSH32 0x8C379A000000000000000000000000000000000000000000000000000000000 DUP2 MSTORE PUSH1 0x4 ADD PUSH2 0x5CA SWAP1 PUSH2 0x122D JUMP JUMPDEST PUSH1 0x40 MLOAD DUP1 SWAP2 SUB SWAP1 REVERT JUMPDEST PUSH0 SELFBALANCE SWAP1 POP PUSH0 DUP2 GT PUSH2 0x619 JUMPI PUSH1 0x40 MLOAD PUSH32 0x8C379A000000000000000000000000000000000000000000000000000000000 DUP2 MSTORE PUSH1 0x4 ADD PUSH2 0x610 SWAP1 PUSH2 0x18D9 JUMP JUMPDEST PUSH1 0x40 MLOAD DUP1 SWAP2 SUB SWAP1 REVERT JUMPDEST PUSH0 JUMPDEST PUSH1 0x4 DUP2 LT ISZERO PUSH2 0x752 JUMPI PUSH0 PUSH20 0xFFFFFFFFFFFFFFFFFFFFFFFFFFFFFFFFFFFFFFFF AND PUSH1 0x3 DUP3 PUSH1 0x4 DUP2 LT PUSH2 0x64F JUMPI PUSH2 0x64E PUSH2 0x1439 JUMP JUMPDEST JUMPDEST PUSH1 0x3 MUL ADD PUSH0 ADD PUSH0 SWAP1 SLOAD SWAP1 PUSH2 0x100 EXP SWAP1 DIV PUSH20 0xFFFFFFFFFFFFFFFFFFFFFFFFFFFFFFFFFFFFFFFF AND PUSH20 0xFFFFFFFFFFFFFFFFFFFFFFFFFFFFFFFFFFFFFFFF AND EQ PUSH2 0x745 JUMPI PUSH0 PUSH1 0x64 PUSH1 0x3 DUP4 PUSH1 0x4 DUP2 LT PUSH2 0x6A7 JUMPI PUSH2 0x6A6 PUSH2 0x1439 JUMP JUMPDEST JUMPDEST PUSH1 0x3 MUL ADD PUSH1 0x2 ADD SLOAD DUP5 PUSH2 0x6BA SWAP2 SWAP1 PUSH2 0x18F7 JUMP JUMPDEST PUSH2 0x6C4 SWAP2 SWAP1 PUSH2 0x1965 JUMP JUMPDEST SWAP1 POP PUSH1 0x3 DUP3 PUSH1 0x4 DUP2 LT PUSH2 0x6DA JUMPI PUSH2 0x6D9 PUSH2 0x1439 JUMP JUMPDEST JUMPDEST PUSH1 0x3 MUL ADD PUSH0 ADD PUSH0 SWAP1 SLOAD SWAP1 PUSH2 0x100 EXP SWAP1 DIV PUSH20 0xFFFFFFFFFFFFFFFFFFFFFFFFFFFFFFFFFFFFFFFF AND PUSH20 0xFFFFFFFFFFFFFFFFFFFFFFFFFFFFFFFFFFFFFFFF AND PUSH2 0x8FC DUP3 SWAP1 DUP2 ISZERO MUL SWAP1 PUSH1 0x40 MLOAD PUSH0 PUSH1 0x40 MLOAD DUP1 DUP4 SUB DUP2 DUP6 DUP9 DUP9 CALL SWAP4 POP POP POP POP ISZERO DUP1 ISZERO PUSH2 0x742 JUMPI RETURNDATASIZE PUSH0 DUP1 RETURNDATACOPY RETURNDATASIZE PUSH0 REVERT JUMPDEST POP POP JUMPDEST DUP1 DUP1 PUSH1 0x1 ADD SWAP2 POP POP PUSH2 0x61B JUMP JUMPDEST POP POP JUMP JUMPDEST PUSH0 DUP1 SLOAD SWAP1 PUSH2 0x100 EXP SWAP1 DIV PUSH20 0xFFFFFFFFFFFFFFFFFFFFFFFFFFFFFFFFFFFFFFFF AND PUSH20 0xFFFFFFFFFFFFFFFFFFFFFFFFFFFFFFFFFFFFFFFF AND CALLER PUSH20 0xFFFFFFFFFFFFFFFFFFFFFFFFFFFFFFFFFFFFFFFF AND EQ PUSH2 0x7E3 JUMPI PUSH1 0x40 MLOAD PUSH32 0x8C379A000000000000000000000000000000000000000000000000000000000 DUP2 MSTORE PUSH1 0x4 ADD PUSH2 0x7DA SWAP1 PUSH2 0x122D JUMP JUMPDEST PUSH1 0x40 MLOAD DUP1 SWAP2 SUB SWAP1 REVERT JUMPDEST TIMESTAMP PUSH1 0x1 DUP2 SWAP1 SSTORE POP JUMP JUMPDEST JUMP JUMPDEST PUSH2 0x7F6 PUSH2 0xC59 JUMP JUMPDEST PUSH1 0x3 PUSH1 0x4 DUP1 PUSH1 0x20 MUL PUSH1 0x40 MLOAD SWAP1 DUP2 ADD PUSH1 0x40 MSTORE DUP1 SWAP3 SWAP2 SWAP1 PUSH0 SWAP1 JUMPDEST DUP3 DUP3 LT ISZERO PUSH2 0x924 JUMPI DUP4 DUP3 PUSH1 0x3 MUL ADD PUSH1 0x40 MLOAD DUP1 PUSH1 0x60 ADD PUSH1 0x40 MSTORE SWAP1 DUP2 PUSH0 DUP3 ADD PUSH0 SWAP1 SLOAD SWAP1 PUSH2 0x100 EXP SWAP1 DIV PUSH20 0xFFFFFFFFFFFFFFFFFFFFFFFFFFFFFFFFFFFFFFFF AND PUSH20 0xFFFFFFFFFFFFFFFFFFFFFFFFFFFFFFFFFFFFFFFF AND PUSH20 0xFFFFFFFFFFFFFFFFFFFFFFFFFFFFFFFFFFFFFFFF AND DUP2 MSTORE PUSH1 0x20 ADD PUSH1 0x1 DUP3 ADD DUP1 SLOAD PUSH2 0x88B SWAP1 PUSH2 0x14C0 JUMP JUMPDEST DUP1 PUSH1 0x1F ADD PUSH1 0x20 DUP1 SWAP2 DIV MUL PUSH1 0x20 ADD PUSH1 0x40 MLOAD SWAP1 DUP2 ADD PUSH1 0x40 MSTORE DUP1 SWAP3 SWAP2 SWAP1 DUP2 DUP2 MSTORE PUSH1 0x20 ADD DUP3 DUP1 SLOAD PUSH2 0x8B7 SWAP1 PUSH2 0x14C0 JUMP JUMPDEST DUP1 ISZERO PUSH2 0x902 JUMPI DUP1 PUSH1 0x1F LT PUSH2 0x8D9 JUMPI PUSH2 0x100 DUP1 DUP4 SLOAD DIV MUL DUP4 MSTORE SWAP2 PUSH1 0x20 ADD SWAP2 PUSH2 0x902 JUMP JUMPDEST DUP3 ADD SWAP2 SWAP1 PUSH0 MSTORE PUSH1 0x20 PUSH0 KECCAK256 SWAP1 JUMPDEST DUP2 SLOAD DUP2 MSTORE SWAP1 PUSH1 0x1 ADD SWAP1 PUSH1 0x20 ADD DUP1 DUP4 GT PUSH2 0x8E5 JUMPI DUP3 SWAP1 SUB PUSH1 0x1F AND DUP3 ADD SWAP2 JUMPDEST POP POP POP POP POP DUP2 MSTORE PUSH1 0x20 ADD PUSH1 0x2 DUP3 ADD SLOAD DUP2 MSTORE POP POP DUP2 MSTORE PUSH1 0x20 ADD SWAP1 PUSH1 0x1 ADD SWAP1 PUSH2 0x80E JUMP JUMPDEST POP POP POP POP SWAP1 POP SWAP1 JUMP JUMPDEST PUSH0 DUP1 SLOAD SWAP1 PUSH2 0x100 EXP SWAP1 DIV PUSH20 0xFFFFFFFFFFFFFFFFFFFFFFFFFFFFFFFFFFFFFFFF AND PUSH20 0xFFFFFFFFFFFFFFFFFFFFFFFFFFFFFFFFFFFFFFFF AND CALLER PUSH20 0xFFFFFFFFFFFFFFFFFFFFFFFFFFFFFFFFFFFFFFFF AND EQ PUSH2 0x9BA JUMPI PUSH1 0x40 MLOAD PUSH32 0x8C379A000000000000000000000000000000000000000000000000000000000 DUP2 MSTORE PUSH1 0x4 ADD PUSH2 0x9B1 SWAP1 PUSH2 0x122D JUMP JUMPDEST PUSH1 0x40 MLOAD DUP1 SWAP2 SUB SWAP1 REVERT JUMPDEST PUSH0 JUMPDEST PUSH1 0x4 DUP2 LT ISZERO PUSH2 0xB35 JUMPI DUP2 PUSH20 0xFFFFFFFFFFFFFFFFFFFFFFFFFFFFFFFFFFFFFFFF AND PUSH1 0x3 DUP3 PUSH1 0x4 DUP2 LT PUSH2 0x9F0 JUMPI PUSH2 0x9EF PUSH2 0x1439 JUMP JUMPDEST JUMPDEST PUSH1 0x3 MUL ADD PUSH0 ADD PUSH0 SWAP1 SLOAD SWAP1 PUSH2 0x100 EXP SWAP1 DIV PUSH20 0xFFFFFFFFFFFFFFFFFFFFFFFFFFFFFFFFFFFFFFFF AND PUSH20 0xFFFFFFFFFFFFFFFFFFFFFFFFFFFFFFFFFFFFFFFF AND SUB PUSH2 0xB28 JUMPI PUSH1 0x3 DUP2 PUSH1 0x4 DUP2 LT PUSH2 0xA45 JUMPI PUSH2 0xA44 PUSH2 0x1439 JUMP JUMPDEST JUMPDEST PUSH1 0x3 MUL ADD PUSH1 0x2 ADD SLOAD PUSH1 0x2 PUSH0 DUP3 DUP3 SLOAD PUSH2 0xA5D SWAP2 SWAP1 PUSH2 0x1810 JUMP JUMPDEST SWAP3 POP POP DUP2 SWAP1 SSTORE POP PUSH1 0x40 MLOAD DUP1 PUSH1 0x60 ADD PUSH1 0x40 MSTORE DUP1 PUSH0 PUSH20 0xFFFFFFFFFFFFFFFFFFFFFFFFFFFFFFFFFFFFFFFF AND DUP2 MSTORE PUSH1 0x20 ADD PUSH1 0x40 MLOAD DUP1 PUSH1 0x20 ADD PUSH1 0x40 MSTORE DUP1 PUSH0 DUP2 MSTORE POP DUP2 MSTORE PUSH1 0x20 ADD PUSH0 DUP2 MSTORE POP PUSH1 0x3 DUP3 PUSH1 0x4 DUP2 LT PUSH2 0xAB7 JUMPI PUSH2 0xAB6 PUSH2 0x1439 JUMP JUMPDEST JUMPDEST PUSH1 0x3 MUL ADD PUSH0 DUP3 ADD MLOAD DUP2 PUSH0 ADD PUSH0 PUSH2 0x100 EXP DUP2 SLOAD DUP2 PUSH20 0xFFFFFFFFFFFFFFFFFFFFFFFFFFFFFFFFFFFFFFFF MUL NOT AND SWAP1 DUP4 PUSH20 0xFFFFFFFFFFFFFFFFFFFFFFFFFFFFFFFFFFFFFFFF AND MUL OR SWAP1 SSTORE POP PUSH1 0x20 DUP3 ADD MLOAD DUP2 PUSH1 0x1 ADD SWAP1 DUP2 PUSH2 0xB14 SWAP2 SWAP1 PUSH2 0x168D JUMP JUMPDEST POP PUSH1 0x40 DUP3 ADD MLOAD DUP2 PUSH1 0x2 ADD SSTORE SWAP1 POP POP POP PUSH2 0xB71 JUMP JUMPDEST DUP1 DUP1 PUSH1 0x1 ADD SWAP2 POP POP PUSH2 0x9BC JUMP JUMPDEST POP PUSH1 0x40 MLOAD PUSH32 0x8C379A000000000000000000000000000000000000000000000000000000000 DUP2 MSTORE PUSH1 0x4 ADD PUSH2 0xB68 SWAP1 PUSH2 0x1A05 JUMP JUMPDEST PUSH1 0x40 MLOAD DUP1 SWAP2 SUB SWAP1 REVERT JUMPDEST POP JUMP JUMPDEST PUSH1 0x2 SLOAD DUP2 JUMP JUMPDEST PUSH0 SELFBALANCE SWAP1 POP SWAP1 JUMP JUMPDEST PUSH1 0x1 SLOAD DUP2 JUMP JUMPDEST PUSH1 0x3 DUP2 PUSH1 0x4 DUP2 LT PUSH2 0xB96 JUMPI PUSH0 DUP1 REVERT JUMPDEST PUSH1 0x3 MUL ADD PUSH0 SWAP2 POP SWAP1 POP DUP1 PUSH0 ADD PUSH0 SWAP1 SLOAD SWAP1 PUSH2 0x100 EXP SWAP1 DIV PUSH20 0xFFFFFFFFFFFFFFFFFFFFFFFFFFFFFFFFFFFFFFFF AND SWAP1 DUP1 PUSH1 0x1 ADD DUP1 SLOAD PUSH2 0xBD2 SWAP1 PUSH2 0x14C0 JUMP JUMPDEST DUP1 PUSH1 0x1F ADD PUSH1 0x20 DUP1 SWAP2 DIV MUL PUSH1 0x20 ADD PUSH1 0x40 MLOAD SWAP1 DUP2 ADD PUSH1 0x40 MSTORE DUP1 SWAP3 SWAP2 SWAP1 DUP2 DUP2 MSTORE PUSH1 0x20 ADD DUP3 DUP1 SLOAD PUSH2 0xBFE SWAP1 PUSH2 0x14C0 JUMP JUMPDEST DUP1 ISZERO PUSH2 0xC49 JUMPI DUP1 PUSH1 0x1F LT PUSH2 0xC20 JUMPI PUSH2 0x100 DUP1 DUP4 SLOAD DIV MUL DUP4 MSTORE SWAP2 PUSH1 0x20 ADD SWAP2 PUSH2 0xC49 JUMP JUMPDEST DUP3 ADD SWAP2 SWAP1 PUSH0 MSTORE PUSH1 0x20 PUSH0 KECCAK256 SWAP1 JUMPDEST DUP2 SLOAD DUP2 MSTORE SWAP1 PUSH1 0x1 ADD SWAP1 PUSH1 0x20 ADD DUP1 DUP4 GT PUSH2 0xC2C JUMPI DUP3 SWAP1 SUB PUSH1 0x1F AND DUP3 ADD SWAP2 JUMPDEST POP POP POP POP POP SWAP1 DUP1 PUSH1 0x2 ADD SLOAD SWAP1 POP DUP4 JUMP JUMPDEST PUSH1 0x40 MLOAD DUP1 PUSH1 0x80 ADD PUSH1 0x40 MSTORE DUP1 PUSH1 0x4 SWAP1 JUMPDEST PUSH2 0xC70 PUSH2 0xC86 JUMP JUMPDEST DUP2 MSTORE PUSH1 0x20 ADD SWAP1 PUSH1 0x1 SWAP1 SUB SWAP1 DUP2 PUSH2 0xC68 JUMPI SWAP1 POP POP SWAP1 JUMP JUMPDEST PUSH1 0x40 MLOAD DUP1 PUSH1 0x60 ADD PUSH1 0x40 MSTORE DUP1 PUSH0 PUSH20 0xFFFFFFFFFFFFFFFFFFFFFFFFFFFFFFFFFFFFFFFF AND DUP2 MSTORE PUSH1 0x20 ADD PUSH1 0x60 DUP2 MSTORE PUSH1 0x20 ADD PUSH0 DUP2 MSTORE POP SWAP1 JUMP JUMPDEST PUSH0 DUP1 REVERT JUMPDEST PUSH0 DUP1 REVERT JUMPDEST PUSH0 PUSH20 0xFFFFFFFFFFFFFFFFFFFFFFFFFFFFFFFFFFFFFFFF DUP3 AND SWAP1 POP SWAP2 SWAP1 POP JUMP JUMPDEST PUSH0 PUSH2 0xCEC DUP3 PUSH2 0xCC3 JUMP JUMPDEST SWAP1 POP SWAP2 SWAP1 POP JUMP JUMPDEST PUSH2 0xCFC DUP2 PUSH2 0xCE2 JUMP JUMPDEST DUP2 EQ PUSH2 0xD06 JUMPI PUSH0 DUP1 REVERT JUMPDEST POP JUMP JUMPDEST PUSH0 DUP2 CALLDATALOAD SWAP1 POP PUSH2 0xD17 DUP2 PUSH2 0xCF3 JUMP JUMPDEST SWAP3 SWAP2 POP POP JUMP JUMPDEST PUSH0 DUP1 REVERT JUMPDEST PUSH0 DUP1 REVERT JUMPDEST PUSH0 DUP1 REVERT JUMPDEST PUSH0 DUP1 DUP4 PUSH1 0x1F DUP5 ADD SLT PUSH2 0xD3E JUMPI PUSH2 0xD3D PUSH2 0xD1D JUMP JUMPDEST JUMPDEST DUP3 CALLDATALOAD SWAP1 POP PUSH8 0xFFFFFFFFFFFFFFFF DUP2 GT ISZERO PUSH2 0xD5B JUMPI PUSH2 0xD5A PUSH2 0xD21 JUMP JUMPDEST JUMPDEST PUSH1 0x20 DUP4 ADD SWAP2 POP DUP4 PUSH1 0x1 DUP3 MUL DUP4 ADD GT ISZERO PUSH2 0xD77 JUMPI PUSH2 0xD76 PUSH2 0xD25 JUMP JUMPDEST JUMPDEST SWAP3 POP SWAP3 SWAP1 POP JUMP JUMPDEST PUSH0 DUP2 SWAP1 POP SWAP2 SWAP1 POP JUMP JUMPDEST PUSH2 0xD90 DUP2 PUSH2 0xD7E JUMP JUMPDEST DUP2 EQ PUSH2 0xD9A JUMPI PUSH0 DUP1 REVERT JUMPDEST POP JUMP JUMPDEST PUSH0 DUP2 CALLDATALOAD SWAP1 POP PUSH2 0xDAB DUP2 PUSH2 0xD87 JUMP JUMPDEST SWAP3 SWAP2 POP POP JUMP JUMPDEST PUSH0 DUP1 PUSH0 DUP1 PUSH1 0x60 DUP6 DUP8 SUB SLT ISZERO PUSH2 0xDC9 JUMPI PUSH2 0xDC8 PUSH2 0xCBB JUMP JUMPDEST JUMPDEST PUSH0 PUSH2 0xDD6 DUP8 DUP3 DUP9 ADD PUSH2 0xD09 JUMP JUMPDEST SWAP5 POP POP PUSH1 0x20 DUP6 ADD CALLDATALOAD PUSH8 0xFFFFFFFFFFFFFFFF DUP2 GT ISZERO PUSH2 0xDF7 JUMPI PUSH2 0xDF6 PUSH2 0xCBF JUMP JUMPDEST JUMPDEST PUSH2 0xE03 DUP8 DUP3 DUP9 ADD PUSH2 0xD29 JUMP JUMPDEST SWAP4 POP SWAP4 POP POP PUSH1 0x40 PUSH2 0xE16 DUP8 DUP3 DUP9 ADD PUSH2 0xD9D JUMP JUMPDEST SWAP2 POP POP SWAP3 SWAP6 SWAP2 SWAP5 POP SWAP3 POP JUMP JUMPDEST PUSH0 DUP2 ISZERO ISZERO SWAP1 POP SWAP2 SWAP1 POP JUMP JUMPDEST PUSH2 0xE36 DUP2 PUSH2 0xE22 JUMP JUMPDEST DUP3 MSTORE POP POP JUMP JUMPDEST PUSH0 PUSH1 0x20 DUP3 ADD SWAP1 POP PUSH2 0xE4F PUSH0 DUP4 ADD DUP5 PUSH2 0xE2D JUMP JUMPDEST SWAP3 SWAP2 POP POP JUMP JUMPDEST PUSH0 PUSH1 0x4 SWAP1 POP SWAP2 SWAP1 POP JUMP JUMPDEST PUSH0 DUP2 SWAP1 POP SWAP3 SWAP2 POP POP JUMP JUMPDEST PUSH0 DUP2 SWAP1 POP SWAP2 SWAP1 POP JUMP JUMPDEST PUSH2 0xE7B DUP2 PUSH2 0xCE2 JUMP JUMPDEST DUP3 MSTORE POP POP JUMP JUMPDEST PUSH0 DUP2 MLOAD SWAP1 POP SWAP2 SWAP1 POP JUMP JUMPDEST PUSH0 DUP3 DUP3 MSTORE PUSH1 0x20 DUP3 ADD SWAP1 POP SWAP3 SWAP2 POP POP JUMP JUMPDEST DUP3 DUP2 DUP4 MCOPY PUSH0 DUP4 DUP4 ADD MSTORE POP POP POP JUMP JUMPDEST PUSH0 PUSH1 0x1F NOT PUSH1 0x1F DUP4 ADD AND SWAP1 POP SWAP2 SWAP1 POP JUMP JUMPDEST PUSH0 PUSH2 0xEC3 DUP3 PUSH2 0xE81 JUMP JUMPDEST PUSH2 0xECD DUP2 DUP6 PUSH2 0xE8B JUMP JUMPDEST SWAP4 POP PUSH2 0xEDD DUP2 DUP6 PUSH1 0x20 DUP7 ADD PUSH2 0xE9B JUMP JUMPDEST PUSH2 0xEE6 DUP2 PUSH2 0xEA9 JUMP JUMPDEST DUP5 ADD SWAP2 POP POP SWAP3 SWAP2 POP POP JUMP JUMPDEST PUSH2 0xEFA DUP2 PUSH2 0xD7E JUMP JUMPDEST DUP3 MSTORE POP POP JUMP JUMPDEST PUSH0 PUSH1 0x60 DUP4 ADD PUSH0 DUP4 ADD MLOAD PUSH2 0xF15 PUSH0 DUP7 ADD DUP3 PUSH2 0xE72 JUMP JUMPDEST POP PUSH1 0x20 DUP4 ADD MLOAD DUP5 DUP3 SUB PUSH1 0x20 DUP7 ADD MSTORE PUSH2 0xF2D DUP3 DUP3 PUSH2 0xEB9 JUMP JUMPDEST SWAP2 POP POP PUSH1 0x40 DUP4 ADD MLOAD PUSH2 0xF42 PUSH1 0x40 DUP7 ADD DUP3 PUSH2 0xEF1 JUMP JUMPDEST POP DUP1 SWAP2 POP POP SWAP3 SWAP2 POP POP JUMP JUMPDEST PUSH0 PUSH2 0xF58 DUP4 DUP4 PUSH2 0xF00 JUMP JUMPDEST SWAP1 POP SWAP3 SWAP2 POP POP JUMP JUMPDEST PUSH0 PUSH1 0x20 DUP3 ADD SWAP1 POP SWAP2 SWAP1 POP JUMP JUMPDEST PUSH0 PUSH2 0xF76 DUP3 PUSH2 0xE55 JUMP JUMPDEST PUSH2 0xF80 DUP2 DUP6 PUSH2 0xE5F JUMP JUMPDEST SWAP4 POP DUP4 PUSH1 0x20 DUP3 MUL DUP6 ADD PUSH2 0xF92 DUP6 PUSH2 0xE69 JUMP JUMPDEST DUP1 PUSH0 JUMPDEST DUP6 DUP2 LT ISZERO PUSH2 0xFCD JUMPI DUP5 DUP5 SUB DUP10 MSTORE DUP2 MLOAD PUSH2 0xFAE DUP6 DUP3 PUSH2 0xF4D JUMP JUMPDEST SWAP5 POP PUSH2 0xFB9 DUP4 PUSH2 0xF60 JUMP JUMPDEST SWAP3 POP PUSH1 0x20 DUP11 ADD SWAP10 POP POP PUSH1 0x1 DUP2 ADD SWAP1 POP PUSH2 0xF95 JUMP JUMPDEST POP DUP3 SWAP8 POP DUP8 SWAP6 POP POP POP POP POP POP SWAP3 SWAP2 POP POP JUMP JUMPDEST PUSH0 PUSH1 0x20 DUP3 ADD SWAP1 POP DUP2 DUP2 SUB PUSH0 DUP4 ADD MSTORE PUSH2 0xFF7 DUP2 DUP5 PUSH2 0xF6C JUMP JUMPDEST SWAP1 POP SWAP3 SWAP2 POP POP JUMP JUMPDEST PUSH0 PUSH2 0x1009 DUP3 PUSH2 0xCC3 JUMP JUMPDEST SWAP1 POP SWAP2 SWAP1 POP JUMP JUMPDEST PUSH2 0x1019 DUP2 PUSH2 0xFFF JUMP JUMPDEST DUP2 EQ PUSH2 0x1023 JUMPI PUSH0 DUP1 REVERT JUMPDEST POP JUMP JUMPDEST PUSH0 DUP2 CALLDATALOAD SWAP1 POP PUSH2 0x1034 DUP2 PUSH2 0x1010 JUMP JUMPDEST SWAP3 SWAP2 POP POP JUMP JUMPDEST PUSH0 PUSH1 0x20 DUP3 DUP5 SUB SLT ISZERO PUSH2 0x104F JUMPI PUSH2 0x104E PUSH2 0xCBB JUMP JUMPDEST JUMPDEST PUSH0 PUSH2 0x105C DUP5 DUP3 DUP6 ADD PUSH2 0x1026 JUMP JUMPDEST SWAP2 POP POP SWAP3 SWAP2 POP POP JUMP JUMPDEST PUSH2 0x106E DUP2 PUSH2 0xD7E JUMP JUMPDEST DUP3 MSTORE POP POP JUMP JUMPDEST PUSH0 PUSH1 0x20 DUP3 ADD SWAP1 POP PUSH2 0x1087 PUSH0 DUP4 ADD DUP5 PUSH2 0x1065 JUMP JUMPDEST SWAP3 SWAP2 POP POP JUMP JUMPDEST PUSH0 PUSH1 0x20 DUP3 DUP5 SUB SLT ISZERO PUSH2 0x10A2 JUMPI PUSH2 0x10A1 PUSH2 0xCBB JUMP JUMPDEST JUMPDEST PUSH0 PUSH2 0x10AF DUP5 DUP3 DUP6 ADD PUSH2 0xD9D JUMP JUMPDEST SWAP2 POP POP SWAP3 SWAP2 POP POP JUMP JUMPDEST PUSH2 0x10C1 DUP2 PUSH2 0xCE2 JUMP JUMPDEST DUP3 MSTORE POP POP JUMP JUMPDEST PUSH0 DUP3 DUP3 MSTORE PUSH1 0x20 DUP3 ADD SWAP1 POP SWAP3 SWAP2 POP POP JUMP JUMPDEST PUSH0 PUSH2 0x10E1 DUP3 PUSH2 0xE81 JUMP JUMPDEST PUSH2 0x10EB DUP2 DUP6 PUSH2 0x10C7 JUMP JUMPDEST SWAP4 POP PUSH2 0x10FB DUP2 DUP6 PUSH1 0x20 DUP7 ADD PUSH2 0xE9B JUMP JUMPDEST PUSH2 0x1104 DUP2 PUSH2 0xEA9 JUMP JUMPDEST DUP5 ADD SWAP2 POP POP SWAP3 SWAP2 POP POP JUMP JUMPDEST PUSH0 PUSH1 0x60 DUP3 ADD SWAP1 POP PUSH2 0x1122 PUSH0 DUP4 ADD DUP7 PUSH2 0x10B8 JUMP JUMPDEST DUP2 DUP2 SUB PUSH1 0x20 DUP4 ADD MSTORE PUSH2 0x1134 DUP2 DUP6 PUSH2 0x10D7 JUMP JUMPDEST SWAP1 POP PUSH2 0x1143 PUSH1 0x40 DUP4 ADD DUP5 PUSH2 0x1065 JUMP JUMPDEST SWAP5 SWAP4 POP POP POP POP JUMP JUMPDEST PUSH32 0xE0B8A1E0B8B5E0B980E0B89EE0B8B5E0B8A2E0B887E0B980E0B888E0B989E0B8 PUSH0 DUP3 ADD MSTORE PUSH32 0xB2E0B882E0B8ADE0B887E0B980E0B897E0B988E0B8B2E0B899E0B8B1E0B989E0 PUSH1 0x20 DUP3 ADD MSTORE PUSH32 0xB899E0B897E0B8B5E0B988E0B8AAE0B8B2E0B8A1E0B8B2E0B8A3E0B896E0B980 PUSH1 0x40 DUP3 ADD MSTORE PUSH32 0xE0B8A3E0B8B5E0B8A2E0B881E0B89FE0B8B1E0B887E0B881E0B98CE0B88AE0B8 PUSH1 0x60 DUP3 ADD MSTORE PUSH32 0xB1E0B899E0B899E0B8B5E0B989E0B984E0B894E0B98900000000000000000000 PUSH1 0x80 DUP3 ADD MSTORE POP JUMP JUMPDEST PUSH0 PUSH2 0x1217 PUSH1 0x96 DUP4 PUSH2 0x10C7 JUMP JUMPDEST SWAP2 POP PUSH2 0x1222 DUP3 PUSH2 0x114B JUMP JUMPDEST PUSH1 0xA0 DUP3 ADD SWAP1 POP SWAP2 SWAP1 POP JUMP JUMPDEST PUSH0 PUSH1 0x20 DUP3 ADD SWAP1 POP DUP2 DUP2 SUB PUSH0 DUP4 ADD MSTORE PUSH2 0x1244 DUP2 PUSH2 0x120B JUMP JUMPDEST SWAP1 POP SWAP2 SWAP1 POP JUMP JUMPDEST PUSH32 0xE0B980E0B89BE0B8ADE0B8A3E0B98CE0B980E0B88BE0B987E0B899E0B895E0B9 PUSH0 DUP3 ADD MSTORE PUSH32 0x8CE0B895E0B989E0B8ADE0B887E0B8A1E0B8B2E0B881E0B881E0B8A7E0B988E0 PUSH1 0x20 DUP3 ADD MSTORE PUSH32 0xB8B2203000000000000000000000000000000000000000000000000000000000 PUSH1 0x40 DUP3 ADD MSTORE POP JUMP JUMPDEST PUSH0 PUSH2 0x12CB PUSH1 0x44 DUP4 PUSH2 0x10C7 JUMP JUMPDEST SWAP2 POP PUSH2 0x12D6 DUP3 PUSH2 0x124B JUMP JUMPDEST PUSH1 0x60 DUP3 ADD SWAP1 POP SWAP2 SWAP1 POP JUMP JUMPDEST PUSH0 PUSH1 0x20 DUP3 ADD SWAP1 POP DUP2 DUP2 SUB PUSH0 DUP4 ADD MSTORE PUSH2 0x12F8 DUP2 PUSH2 0x12BF JUMP JUMPDEST SWAP1 POP SWAP2 SWAP1 POP JUMP JUMPDEST PUSH32 0x4E487B7100000000000000000000000000000000000000000000000000000000 PUSH0 MSTORE PUSH1 0x11 PUSH1 0x4 MSTORE PUSH1 0x24 PUSH0 REVERT JUMPDEST PUSH0 PUSH2 0x1336 DUP3 PUSH2 0xD7E JUMP JUMPDEST SWAP2 POP PUSH2 0x1341 DUP4 PUSH2 0xD7E JUMP JUMPDEST SWAP3 POP DUP3 DUP3 ADD SWAP1 POP DUP1 DUP3 GT ISZERO PUSH2 0x1359 JUMPI PUSH2 0x1358 PUSH2 0x12FF JUMP JUMPDEST JUMPDEST SWAP3 SWAP2 POP POP JUMP JUMPDEST PUSH32 0xE0B980E0B89BE0B8ADE0B8A3E0B98CE0B980E0B88BE0B987E0B899E0B895E0B9 PUSH0 DUP3 ADD MSTORE PUSH32 0x8CE0B8A3E0B8A7E0B8A1E0B897E0B8B1E0B989E0B887E0B8ABE0B8A1E0B894E0 PUSH1 0x20 DUP3 ADD MSTORE PUSH32 0xB895E0B989E0B8ADE0B887E0B984E0B8A1E0B988E0B980E0B881E0B8B4E0B899 PUSH1 0x40 DUP3 ADD MSTORE PUSH32 0x2031303025000000000000000000000000000000000000000000000000000000 PUSH1 0x60 DUP3 ADD MSTORE POP JUMP JUMPDEST PUSH0 PUSH2 0x1405 PUSH1 0x65 DUP4 PUSH2 0x10C7 JUMP JUMPDEST SWAP2 POP PUSH2 0x1410 DUP3 PUSH2 0x135F JUMP JUMPDEST PUSH1 0x80 DUP3 ADD SWAP1 POP SWAP2 SWAP1 POP JUMP JUMPDEST PUSH0 PUSH1 0x20 DUP3 ADD SWAP1 POP DUP2 DUP2 SUB PUSH0 DUP4 ADD MSTORE PUSH2 0x1432 DUP2 PUSH2 0x13F9 JUMP JUMPDEST SWAP1 POP SWAP2 SWAP1 POP JUMP JUMPDEST PUSH32 0x4E487B7100000000000000000000000000000000000000000000000000000000 PUSH0 MSTORE PUSH1 0x32 PUSH1 0x4 MSTORE PUSH1 0x24 PUSH0 REVERT JUMPDEST PUSH32 0x4E487B7100000000000000000000000000000000000000000000000000000000 PUSH0 MSTORE PUSH1 0x41 PUSH1 0x4 MSTORE PUSH1 0x24 PUSH0 REVERT JUMPDEST PUSH32 0x4E487B7100000000000000000000000000000000000000000000000000000000 PUSH0 MSTORE PUSH1 0x22 PUSH1 0x4 MSTORE PUSH1 0x24 PUSH0 REVERT JUMPDEST PUSH0 PUSH1 0x2 DUP3 DIV SWAP1 POP PUSH1 0x1 DUP3 AND DUP1 PUSH2 0x14D7 JUMPI PUSH1 0x7F DUP3 AND SWAP2 POP JUMPDEST PUSH1 0x20 DUP3 LT DUP2 SUB PUSH2 0x14EA JUMPI PUSH2 0x14E9 PUSH2 0x1493 JUMP JUMPDEST JUMPDEST POP SWAP2 SWAP1 POP JUMP JUMPDEST PUSH0 DUP2 SWAP1 POP DUP2 PUSH0 MSTORE PUSH1 0x20 PUSH0 KECCAK256 SWAP1 POP SWAP2 SWAP1 POP JUMP JUMPDEST PUSH0 PUSH1 0x20 PUSH1 0x1F DUP4 ADD DIV SWAP1 POP SWAP2 SWAP1 POP JUMP JUMPDEST PUSH0 DUP3 DUP3 SHL SWAP1 POP SWAP3 SWAP2 POP POP JUMP JUMPDEST PUSH0 PUSH1 0x8 DUP4 MUL PUSH2 0x154C PUSH32 0xFFFFFFFFFFFFFFFFFFFFFFFFFFFFFFFFFFFFFFFFFFFFFFFFFFFFFFFFFFFFFFFF DUP3 PUSH2 0x1511 JUMP JUMPDEST PUSH2 0x1556 DUP7 DUP4 PUSH2 0x1511 JUMP JUMPDEST SWAP6 POP DUP1 NOT DUP5 AND SWAP4 POP DUP1 DUP7 AND DUP5 OR SWAP3 POP POP POP SWAP4 SWAP3 POP POP POP JUMP JUMPDEST PUSH0 DUP2 SWAP1 POP SWAP2 SWAP1 POP JUMP JUMPDEST PUSH0 PUSH2 0x1591 PUSH2 0x158C PUSH2 0x1587 DUP5 PUSH2 0xD7E JUMP JUMPDEST PUSH2 0x156E JUMP JUMPDEST PUSH2 0xD7E JUMP JUMPDEST SWAP1 POP SWAP2 SWAP1 POP JUMP JUMPDEST PUSH0 DUP2 SWAP1 POP SWAP2 SWAP1 POP JUMP JUMPDEST PUSH2 0x15AA DUP4 PUSH2 0x1577 JUMP JUMPDEST PUSH2 0x15BE PUSH2 0x15B6 DUP3 PUSH2 0x1598 JUMP JUMPDEST DUP5 DUP5 SLOAD PUSH2 0x151D JUMP JUMPDEST DUP3 SSTORE POP POP POP POP JUMP JUMPDEST PUSH0 SWAP1 JUMP JUMPDEST PUSH2 0x15D2 PUSH2 0x15C6 JUMP JUMPDEST PUSH2 0x15DD DUP2 DUP5 DUP5 PUSH2 0x15A1 JUMP JUMPDEST POP POP POP JUMP JUMPDEST JUMPDEST DUP2 DUP2 LT ISZERO PUSH2 0x1600 JUMPI PUSH2 0x15F5 PUSH0 DUP3 PUSH2 0x15CA JUMP JUMPDEST PUSH1 0x1 DUP2 ADD SWAP1 POP PUSH2 0x15E3 JUMP JUMPDEST POP POP JUMP JUMPDEST PUSH1 0x1F DUP3 GT ISZERO PUSH2 0x1645 JUMPI PUSH2 0x1616 DUP2 PUSH2 0x14F0 JUMP JUMPDEST PUSH2 0x161F DUP5 PUSH2 0x1502 JUMP JUMPDEST DUP2 ADD PUSH1 0x20 DUP6 LT ISZERO PUSH2 0x162E JUMPI DUP2 SWAP1 POP JUMPDEST PUSH2 0x1642 PUSH2 0x163A DUP6 PUSH2 0x1502 JUMP JUMPDEST DUP4 ADD DUP3 PUSH2 0x15E2 JUMP JUMPDEST POP POP JUMPDEST POP POP POP JUMP JUMPDEST PUSH0 DUP3 DUP3 SHR SWAP1 POP SWAP3 SWAP2 POP POP JUMP JUMPDEST PUSH0 PUSH2 0x1665 PUSH0 NOT DUP5 PUSH1 0x8 MUL PUSH2 0x164A JUMP JUMPDEST NOT DUP1 DUP4 AND SWAP2 POP POP SWAP3 SWAP2 POP POP JUMP JUMPDEST PUSH0 PUSH2 0x167D DUP4 DUP4 PUSH2 0x1656 JUMP JUMPDEST SWAP2 POP DUP3 PUSH1 0x2 MUL DUP3 OR SWAP1 POP SWAP3 SWAP2 POP POP JUMP JUMPDEST PUSH2 0x1696 DUP3 PUSH2 0xE81 JUMP JUMPDEST PUSH8 0xFFFFFFFFFFFFFFFF DUP2 GT ISZERO PUSH2 0x16AF JUMPI PUSH2 0x16AE PUSH2 0x1466 JUMP JUMPDEST JUMPDEST PUSH2 0x16B9 DUP3 SLOAD PUSH2 0x14C0 JUMP JUMPDEST PUSH2 0x16C4 DUP3 DUP3 DUP6 PUSH2 0x1604 JUMP JUMPDEST PUSH0 PUSH1 0x20 SWAP1 POP PUSH1 0x1F DUP4 GT PUSH1 0x1 DUP2 EQ PUSH2 0x16F5 JUMPI PUSH0 DUP5 ISZERO PUSH2 0x16E3 JUMPI DUP3 DUP8 ADD MLOAD SWAP1 POP JUMPDEST PUSH2 0x16ED DUP6 DUP3 PUSH2 0x1672 JUMP JUMPDEST DUP7 SSTORE POP PUSH2 0x1754 JUMP JUMPDEST PUSH1 0x1F NOT DUP5 AND PUSH2 0x1703 DUP7 PUSH2 0x14F0 JUMP JUMPDEST PUSH0 JUMPDEST DUP3 DUP2 LT ISZERO PUSH2 0x172A JUMPI DUP5 DUP10 ADD MLOAD DUP3 SSTORE PUSH1 0x1 DUP3 ADD SWAP2 POP PUSH1 0x20 DUP6 ADD SWAP5 POP PUSH1 0x20 DUP2 ADD SWAP1 POP PUSH2 0x1705 JUMP JUMPDEST DUP7 DUP4 LT ISZERO PUSH2 0x1747 JUMPI DUP5 DUP10 ADD MLOAD PUSH2 0x1743 PUSH1 0x1F DUP10 AND DUP3 PUSH2 0x1656 JUMP JUMPDEST DUP4 SSTORE POP JUMPDEST PUSH1 0x1 PUSH1 0x2 DUP9 MUL ADD DUP9 SSTORE POP POP POP JUMPDEST POP POP POP POP POP POP JUMP JUMPDEST PUSH32 0xE0B984E0B8A1E0B988E0B8AAE0B8B2E0B8A1E0B8B2E0B8A3E0B896E0B980E0B8 PUSH0 DUP3 ADD MSTORE PUSH32 0x9EE0B8B4E0B988E0B8A1E0B89CE0B8B9E0B989E0B8A3E0B8B1E0B89AE0B8A1E0 PUSH1 0x20 DUP3 ADD MSTORE PUSH32 0xB8A3E0B894E0B881E0B980E0B881E0B8B4E0B899203420E0B884E0B899000000 PUSH1 0x40 DUP3 ADD MSTORE POP JUMP JUMPDEST PUSH0 PUSH2 0x17DC PUSH1 0x5D DUP4 PUSH2 0x10C7 JUMP JUMPDEST SWAP2 POP PUSH2 0x17E7 DUP3 PUSH2 0x175C JUMP JUMPDEST PUSH1 0x60 DUP3 ADD SWAP1 POP SWAP2 SWAP1 POP JUMP JUMPDEST PUSH0 PUSH1 0x20 DUP3 ADD SWAP1 POP DUP2 DUP2 SUB PUSH0 DUP4 ADD MSTORE PUSH2 0x1809 DUP2 PUSH2 0x17D0 JUMP JUMPDEST SWAP1 POP SWAP2 SWAP1 POP JUMP JUMPDEST PUSH0 PUSH2 0x181A DUP3 PUSH2 0xD7E JUMP JUMPDEST SWAP2 POP PUSH2 0x1825 DUP4 PUSH2 0xD7E JUMP JUMPDEST SWAP3 POP DUP3 DUP3 SUB SWAP1 POP DUP2 DUP2 GT ISZERO PUSH2 0x183D JUMPI PUSH2 0x183C PUSH2 0x12FF JUMP JUMPDEST JUMPDEST SWAP3 SWAP2 POP POP JUMP JUMPDEST PUSH32 0xE0B984E0B8A1E0B988E0B8A1E0B8B5E0B980E0B887E0B8B4E0B899E0B983E0B8 PUSH0 DUP3 ADD MSTORE PUSH32 0x99E0B881E0B8ADE0B887E0B897E0B8B8E0B899E0B983E0B8ABE0B989E0B981E0 PUSH1 0x20 DUP3 ADD MSTORE PUSH32 0xB888E0B881E0B888E0B988E0B8B2E0B8A2000000000000000000000000000000 PUSH1 0x40 DUP3 ADD MSTORE POP JUMP JUMPDEST PUSH0 PUSH2 0x18C3 PUSH1 0x51 DUP4 PUSH2 0x10C7 JUMP JUMPDEST SWAP2 POP PUSH2 0x18CE DUP3 PUSH2 0x1843 JUMP JUMPDEST PUSH1 0x60 DUP3 ADD SWAP1 POP SWAP2 SWAP1 POP JUMP JUMPDEST PUSH0 PUSH1 0x20 DUP3 ADD SWAP1 POP DUP2 DUP2 SUB PUSH0 DUP4 ADD MSTORE PUSH2 0x18F0 DUP2 PUSH2 0x18B7 JUMP JUMPDEST SWAP1 POP SWAP2 SWAP1 POP JUMP JUMPDEST PUSH0 PUSH2 0x1901 DUP3 PUSH2 0xD7E JUMP JUMPDEST SWAP2 POP PUSH2 0x190C DUP4 PUSH2 0xD7E JUMP JUMPDEST SWAP3 POP DUP3 DUP3 MUL PUSH2 0x191A DUP2 PUSH2 0xD7E JUMP JUMPDEST SWAP2 POP DUP3 DUP3 DIV DUP5 EQ DUP4 ISZERO OR PUSH2 0x1931 JUMPI PUSH2 0x1930 PUSH2 0x12FF JUMP JUMPDEST JUMPDEST POP SWAP3 SWAP2 POP POP JUMP JUMPDEST PUSH32 0x4E487B7100000000000000000000000000000000000000000000000000000000 PUSH0 MSTORE PUSH1 0x12 PUSH1 0x4 MSTORE PUSH1 0x24 PUSH0 REVERT JUMPDEST PUSH0 PUSH2 0x196F DUP3 PUSH2 0xD7E JUMP JUMPDEST SWAP2 POP PUSH2 0x197A DUP4 PUSH2 0xD7E JUMP JUMPDEST SWAP3 POP DUP3 PUSH2 0x198A JUMPI PUSH2 0x1989 PUSH2 0x1938 JUMP JUMPDEST JUMPDEST DUP3 DUP3 DIV SWAP1 POP SWAP3 SWAP2 POP POP JUMP JUMPDEST PUSH32 0xE0B984E0B8A1E0B988E0B89EE0B89AE0B89CE0B8B9E0B989E0B8A3E0B8B1E0B8 PUSH0 DUP3 ADD MSTORE PUSH32 0x9AE0B8A1E0B8A3E0B894E0B88100000000000000000000000000000000000000 PUSH1 0x20 DUP3 ADD MSTORE POP JUMP JUMPDEST PUSH0 PUSH2 0x19EF PUSH1 0x2D DUP4 PUSH2 0x10C7 JUMP JUMPDEST SWAP2 POP PUSH2 0x19FA DUP3 PUSH2 0x1995 JUMP JUMPDEST PUSH1 0x40 DUP3 ADD SWAP1 POP SWAP2 SWAP1 POP JUMP JUMPDEST PUSH0 PUSH1 0x20 DUP3 ADD SWAP1 POP DUP2 DUP2 SUB PUSH0 DUP4 ADD MSTORE PUSH2 0x1A1C DUP2 PUSH2 0x19E3 JUMP JUMPDEST SWAP1 POP SWAP2 SWAP1 POP JUMP INVALID LOG2 PUSH5 0x6970667358 0x22 SLT KECCAK256 BLOCKHASH 0xAB 0xCE RETURNDATACOPY CREATE 0x1E 0xB0 OR 0xCB PUSH10 0x9DA6BEEFFD09CEED4021 PUSH16 0x4F21ED50122FBA2E4A977164736F6C63 NUMBER STOP ADDMOD BYTE STOP CALLER "
		},
		"gasEstimates": {
			"creation": {
				"codeDepositCost": "1349000",
				"executionCost": "52792",
				"totalCost": "1401792"
			},
			"external": {
				"addFunds()": "208",
				"addInheritor(address,string,uint256)": "infinite",
				"distributeInheritance()": "infinite",
				"inheritors(uint256)": "infinite",
				"isAlive()": "infinite",
				"keepAlive()": "24489",
				"lastAlive()": "2513",
				"removeInheritor(address)": "infinite",
				"totalPercentage()": "2469",
				"viewInheritors()": "infinite",
				"viewPoolBalance()": "400"
			}
		},
		"methodIdentifiers": {
			"addFunds()": "a26759cb",
			"addInheritor(address,string,uint256)": "30ac6470",
			"distributeInheritance()": "53a41b50",
			"inheritors(uint256)": "f2a314fa",
			"isAlive()": "4136aa35",
			"keepAlive()": "87740c0d",
			"lastAlive()": "dffdac49",
			"removeInheritor(address)": "cf701f31",
			"totalPercentage()": "d44a0e61",
			"viewInheritors()": "ca8fb041",
			"viewPoolBalance()": "d5d319c8"
		}
	},
	"abi": [
		{
			"inputs": [],
			"stateMutability": "nonpayable",
			"type": "constructor"
		},
		{
			"inputs": [],
			"name": "addFunds",
			"outputs": [],
			"stateMutability": "payable",
			"type": "function"
		},
		{
			"inputs": [
				{
					"internalType": "address payable",
					"name": "inheritorAddress",
					"type": "address"
				},
				{
					"internalType": "string",
					"name": "name",
					"type": "string"
				},
				{
					"internalType": "uint256",
					"name": "percentage",
					"type": "uint256"
				}
			],
			"name": "addInheritor",
			"outputs": [],
			"stateMutability": "nonpayable",
			"type": "function"
		},
		{
			"inputs": [],
			"name": "distributeInheritance",
			"outputs": [],
			"stateMutability": "nonpayable",
			"type": "function"
		},
		{
			"inputs": [
				{
					"internalType": "uint256",
					"name": "",
					"type": "uint256"
				}
			],
			"name": "inheritors",
			"outputs": [
				{
					"internalType": "address payable",
					"name": "inheritorAddress",
					"type": "address"
				},
				{
					"internalType": "string",
					"name": "name",
					"type": "string"
				},
				{
					"internalType": "uint256",
					"name": "percentage",
					"type": "uint256"
				}
			],
			"stateMutability": "view",
			"type": "function"
		},
		{
			"inputs": [],
			"name": "isAlive",
			"outputs": [
				{
					"internalType": "bool",
					"name": "",
					"type": "bool"
				}
			],
			"stateMutability": "view",
			"type": "function"
		},
		{
			"inputs": [],
			"name": "keepAlive",
			"outputs": [],
			"stateMutability": "nonpayable",
			"type": "function"
		},
		{
			"inputs": [],
			"name": "lastAlive",
			"outputs": [
				{
					"internalType": "uint256",
					"name": "",
					"type": "uint256"
				}
			],
			"stateMutability": "view",
			"type": "function"
		},
		{
			"inputs": [
				{
					"internalType": "address",
					"name": "inheritorAddress",
					"type": "address"
				}
			],
			"name": "removeInheritor",
			"outputs": [],
			"stateMutability": "nonpayable",
			"type": "function"
		},
		{
			"inputs": [],
			"name": "totalPercentage",
			"outputs": [
				{
					"internalType": "uint256",
					"name": "",
					"type": "uint256"
				}
			],
			"stateMutability": "view",
			"type": "function"
		},
		{
			"inputs": [],
			"name": "viewInheritors",
			"outputs": [
				{
					"components": [
						{
							"internalType": "address payable",
							"name": "inheritorAddress",
							"type": "address"
						},
						{
							"internalType": "string",
							"name": "name",
							"type": "string"
						},
						{
							"internalType": "uint256",
							"name": "percentage",
							"type": "uint256"
						}
					],
					"internalType": "struct Inheritance.Inheritor[4]",
					"name": "",
					"type": "tuple[4]"
				}
			],
			"stateMutability": "view",
			"type": "function"
		},
		{
			"inputs": [],
			"name": "viewPoolBalance",
			"outputs": [
				{
					"internalType": "uint256",
					"name": "",
					"type": "uint256"
				}
			],
			"stateMutability": "view",
			"type": "function"
		}
	]
}